:020000040800F2
:10000000F0070020B50100084D330008E52800087E
:10001000D9310008AD0200086D380008000000006A
:100020000000000000000000000000004D36000845
:10003000B1020008000000005133000851360008EA
:10004000CF010008CF010008CF010008CF01000850
:10005000CF010008CF010008CF010008CF01000840
:10006000CF010008CF010008CF010008CF01000830
:10007000CF010008CF010008CF010008CF01000820
:10008000CF010008CF010008CF010008CF01000810
:10009000CF010008CF010008CF010008CF01000800
:1000A000CF010008CF010008CF010008CF010008F0
:1000B000CF010008CF010008CF010008CF010008E0
:1000C000CF010008CF010008CF010008CF010008D0
:1000D000CF01000861380008CF010008CF010008F7
:1000E000CF010008CF010008CF01000800F002F89E
:1000F00000F050F814A696E8000CB244B344DA4578
:1001000001D100F047F8BAE80F000FA696E83000DA
:10011000A5EB040504EB0607AAEB0704A7F101070A
:100120004FEA15154FEA3414A4F10104AC4201D38F
:1001300000F030F813F0010F18BFFB1A43F0010371
:1001400000F001F8DBE71847D0380000F038000075
:10015000103A24BF78C878C1FAD8520724BF30C8F3
:1001600030C144BF04680C60704700007047000055
:100170000023002400250026103A28BF78C1FBD8B0
:10018000520728BF30C148BF0B6070471FB51FBD65
:1001900010B510BD00F050F81146FFF7F7FF03F05F
:1001A00067FB00F06EF803B4FFF7F2FF03BC00F04A
:1001B00075F800000948804709480047FEE7FEE758
:1001C000FEE7FEE7FEE7FEE7FEE7FEE7FEE7FEE707
:1001D00004480549054A064B70470000553600089B
:1001E000ED000008F0010020F0070020F0030020DF
:1001F000F003002010B5431C02E010F8011B71B1A0
:100200008107FAD14FF0013202C88C1A8C4314EAEC
:10021000C211F9D0C01A0A0603D0C01E10BDC01A00
:1002200010BD0A0401D0801E10BD0902FCD0401E82
:1002300010BD704770477047754600F02BF8AE460A
:1002400005006946534620F00700854618B020B5E2
:10025000FFF7BEFFBDE820404FF000064FF000075B
:100260004FF000084FF0000BAC46ACE8C009ACE81A
:10027000C009ACE8C009ACE8C00921F007018D460F
:10028000704710B50446AFF300802046BDE810402B
:10029000FFF789BF0048704710000020014918206F
:1002A000ABBEFEE72600020070470000FEE700003C
:1002B00070470000EFF3108072B600BFFEE7000049
:1002C000014690F82100022816D10868D1E90FC331
:1002D000026822F00E020260026822F0010202604F
:1002E000012000FA03F2CCF8042081F8210000205C
:1002F000002281F82020704704208863012000221A
:1003000081F820207047000090F82110022923D1A5
:10031000026840F2040C1168C4F2020C21F00E01D4
:10032000116013682F21C4F202018A4223F00103F5
:10033000136015DD3023C4F202039A421CD044231B
:10034000C4F202039A421BD05823C4F202039A4219
:100350001CD14FF4803321E00421816301207047D8
:100360000823C4F202039A420ED01C23C4F20203F3
:100370009A420BD1102311E04FF480730EE000BFBE
:100380004FF480530AE000BF012307E00CF168013D
:100390004FF080738A4208BF4FF480130121CCF8DC
:1003A000003080F82110416B0022002980F82020C5
:1003B00004BF0020704780B58847002080BD000042
:1003C000B0B5044600F01EF9054640F20000C2F246
:1003D00000000078611C18BF044400BF00F012F94F
:1003E000401BA042FAD3B0BD2DE9F04F82B00E6899
:1003F000002E00F0FD8041F20042C4F2010204230D
:1004000040F2004E904208BF03234FF6FF7CC4F237
:10041000010E009300240123C1F2100C4FF0000ADA
:100420004FF000094BE000BF41F20002C4F20102AC
:10043000009F904208BF022704F00C030F229A404D
:100440002BEA020207FA03F34FEA9A051A4346F829
:1004500025204E6840F20C45F202DEF8082054BF19
:1004600022EA080242EA0802C4F20105CEF8082096
:100470002A68B30254BF22EA080242EA08022A604C
:10048000B303DEF8042054BF22EA080242EA08025D
:10049000F303CEF80420DEF800204FF0010354BF30
:1004A00022EA080242EA0802CEF800200E680AF1A9
:1004B000010A36FA0AF204F1040400F0998003FA02
:1004C0000AFB16EA0B08F1D04E68664512DC122EC4
:1004D00056D8DFE806F0350B4D495555555555555D
:1004E0005555555555555545510000BFD1F80C90FF
:1004F00046E000BF4FF6FF72C1F2210296420FDCC8
:100500000022C1F2110296421AD00022C1F2120258
:10051000964215D00022C1F22102964210D02FE05F
:100520000022C1F2220296420AD00022C1F2310218
:10053000964205D00022C1F23202964220D100BF7D
:100540008A684AB1012A14BFC0F814B0C0F810B0CC
:100550004FF0080914E000BF4FF0040910E000BF9D
:10056000CA6802F104090BE04FF0000908E000BF7F
:10057000CA6802F1080903E0CA6802F10C0900BF69
:1005800002462646B8F5807F24BF0432203E176815
:100590000F25B54027EA050509FA06F6354315602B
:1005A000CA79D2067FF582AF41F21803C4F2020382
:1005B0001A68AEF57E7642F001021A601A6802F0FF
:1005C00001020192019A2AF0030256F802B040F6A5
:1005D0000002C4F20102904208D040F60042C4F288
:1005E000010290427FF420AF012725E7002723E78F
:1005F00002B0BDE8F08F0000002A08BF09040161C5
:100600007047000040F2E810C2F200000068704736
:10061000002804BF01207047F0B581B0044690F86F
:100620003D0028B9002084F83C00204600F03EFC44
:10063000242084F83D002068016821F00101016058
:10064000016841F400410160016821F4004101604A
:1006500000F002FE636848F2A16CC0F2010C40F6A3
:100660000011C0F23D0163453CBF48F28041C0F239
:100670001E01884202D2012001B0F0BD4DF6836117
:10068000C4F21B31A0FB01122168970CD1F804E0E1
:100690004FF496762EF03F0545EA92454D6077433C
:1006A00048F638160D6AC0F24106A7FB067625F01B
:1006B0003F07634538BF960C721C3A430A62CA6909
:1006C00048F2A0664CF6FF77C0F20106B34222EA78
:1006D00007020BD801385B00B0FBF3F001306FF379
:1006E0001F30042898BF04201BE000BFA768013812
:1006F00057B119277B43B0FBF3F001306FF31F3084
:1007000070B100F5804007E003EB4303B0FBF3F06A
:1007100001306FF31F3018B100F5004001E000BF59
:1007200001201043C8610868D4E9072320F0C00005
:10073000104318430860886848F2FF3204F10C0740
:1007400090438CCF18431043A6698860C86820F096
:10075000FF0038433043C860086840F0010008607B
:1007600000202021206484F83D10206384F83E009E
:1007700001B0F0BD2DE9F04784B0044600201F46CB
:10078000164689460290FFF73DFF94F83D10202958
:1007900024D10546206800BF816989071AD5FFF773
:1007A00031FF411B20681A29F6D381698907F3D5E7
:1007B00000202021206384F83D1084F83E00216C45
:1007C00041F02001216484F83C00022004B0BDE81F
:1007D000F08700BF94F83C10012903D1022004B037
:1007E000BDE8F087012184F83C100168C90703D1F6
:1007F000016841F0010101600168DDF8308021F4F9
:1008000000610160222184F83D10102184F83E101F
:100810000021216466626785618D0227C0F20107AD
:100820002185A7F10211E162E16A026811F5803FBA
:1008300042F48062026018BF01293DD1016841F491
:100840008071016020464FF001110022434600955F
:1008500002F00CF950B120680068C00544BF4FF4A5
:1008600000702064012004B0BDE8F0872069B0F575
:10087000804F27D149F00100C0B22168424608618B
:10088000204639462B4602F0D7F90028EAD1208DC0
:10089000022861D0012849D0002840F07380002050
:1008A000039020684169039181690391039901686C
:1008B00041F40071016071E00829BFD0216B11295A
:1008C000BCD0BFE7062000EAD916206806F1F00187
:1008D0000161B91D204642462B4602F0ADF90028C1
:1008E000C0D120685FFA89F101612046394642464D
:1008F0002B4602F0A1F90028B4D100200390206813
:10090000002241694346039181690391039901687B
:1009100041F48071016020464FF00111009502F012
:10092000A5F8002897D146F0F100A6E720680168F5
:1009300021F480610160EFF3108072B60020039013
:10094000206841690391816903910399016841F429
:100950000071016062B621E02068016841F4006125
:100960000160EFF3108072B60020039020684169A7
:100970000391816903910399016821F48061016009
:1009800062B60BE02068016841F4806101600021DB
:10099000039141690391806903900398208D002899
:1009A00000F0CA8040F208094BF2895A0237C2F2BD
:1009B0000009C1F2F84A23260EE000BF1069087052
:1009C000606A218D01306062481E2085618D013989
:1009D0006185010400F0B08080B203280CD80228A1
:1009E0002CD001284AD1204641462A4602F090F9EF
:1009F000002800F09C8035E7204641462A4602F058
:100A000087F900287FF42EAF2068616A00690870BA
:100A1000606A2268411C208D616201382085638DE7
:100A2000013B638553695B07D3D580B20328C5D1E9
:100A3000106820F480601060C0E700BF204639468F
:100A400000224346009502F011F800287FF40AAF17
:100A5000EFF3108072B62068616A026842F4007297
:100A6000026000690870606A218D01306062481E72
:100A70002085608D0138608562B658E02046394691
:100A800000224346009501F0F1FF00287FF4EAAE12
:100A90002068016821F480610160EFF3108072B674
:100AA0002068616A00690870606A218D013001392F
:100AB00060622185618D01396185D9F80010C9080E
:100AC000A1FB0A12110A71430291029901390291A4
:100AD000029900293CD021684A69520717D4029A2A
:100AE000013A0292029A9AB34A6952070FD4029AC3
:100AF000013A0292029A5AB34A69520707D4029AFB
:100B0000013A0292029A1AB34A695207DDD50A687D
:100B100042F400720A6009690170606A218D013037
:100B20006062481E2085608D0138608562B620684D
:100B3000616A006943E700BF202084F83D0000207F
:100B400084F83E0084F83C0004B0BDE8F08700BFA4
:100B500000202021206384F83D1084F83E00216CA1
:100B600041F02001216462B684F83C00012004B009
:100B7000BDE8F0872DE9F04383B01E46174689464D
:100B80000446FFF73FFD94F83D10202924D1054687
:100B9000206800BF816989071AD5FFF733FD411B23
:100BA00020681A29F6D381698907F3D5002020210E
:100BB000206384F83D1084F83E00216C41F0200150
:100BC000216484F83C00022003B0BDE8F08300BF3C
:100BD00094F83C10012903D1022003B0BDE8F08352
:100BE000012184F83C100168C90703D1016841F074
:100BF00001010160016840F2020821F40061016016
:100C0000212184F83D10102184F83E100021216438
:100C100067626685618DC0F201082185A8F1021125
:100C2000E162E16A0A9E11F5803F18BF01291DD1DA
:100C3000016841F48071016020464FF001110022EB
:100C40003346009501F012FF50B120680068C005DE
:100C500044BF4FF400702064012003B0BDE8F0836E
:100C60002069B0F5804F07D1FE2015E00829DFD0BC
:100C7000216B1229DCD0DFE7062000EAD9102168B9
:100C8000F030086108F10601204632462B4601F09B
:100C9000D3FF0028E0D1FF20216800EA09000861A5
:100CA0002046414632462B4601F0C6FF0028D3D1EC
:100CB00000200290206841690291806902900298A8
:100CC00006E000BF204631462A4601F071FE18BBFF
:100CD000208D68B3204631462A4602F061F8D8B923
:100CE000606A2168024612F8013B0B616262628D04
:100CF000013A6285228D531E23854F697F07E1D516
:100D00001B04DFD0437802300B616062608D0138D4
:100D10006085901E2085D5E7206C04289CD1206832
:100D2000016841F400710160012003B0BDE8F08367
:100D30002068016841F400710160202084F83D00C2
:100D4000002084F83E0084F83C0003B0BDE8F08346
:100D50002DE9F04383B0994616460F460446FFF747
:100D600051FC94F83D10202924D10546206800BF8D
:100D7000816989071AD5FFF745FC411B20681A29AC
:100D8000F6D381698907F3D500202021206384F8F8
:100D90003D1084F83E00216C41F02001216484F86C
:100DA0003C00022003B0BDE8F08300BF94F83C1083
:100DB000012903D1022003B0BDE8F083012284F8A9
:100DC0003C200368DDE90B180A9ADB0703D10368AE
:100DD00043F001030360036823F4006303602120F0
:100DE00084F83D00402084F83E00002020646262C8
:100DF0006185608D394620850020CFF6FF70E06266
:100E0000204632464B46CDE9008501F06DFD18B114
:100E1000012003B0BDE8F083208D98B920464146FB
:100E20002A4601F0C5FD88B3206C0428F0D1206863
:100E3000016841F400710160012003B0BDE8F08356
:100E40000004EBD0204641462A4601F0A9FF0028C5
:100E5000EAD1616A2268084610F8013B1361238DCC
:100E60006062581E2085678D013F678557697F073F
:100E7000E6D50704E4D048781061881C6062981EAB
:100E80002085618D01396185DAE700BF206801683E
:100E900041F400710160202084F83D00002084F8B6
:100EA0003E0084F83C0003B0BDE8F08310B586B086
:100EB000006845F20041C4F2000188424FF0000092
:100EC000CDE90400CDE9020002D006B010BD00BF9C
:100ED00041F21804C4F20204206802A940F008009C
:100EE0002060206800F00800019001984FF44070E5
:100EF0000290122003900320059040F60040C4F2B7
:100F00000100FFF771FA0420C4F20100016841F00A
:100F1000E06141F002010160606840F4001060602F
:100F2000606800F400100190019806B010BD000048
:100F300040F2000040F2E811C2F20000C2F20001EB
:100F400000780A68104408607047000080B542F2DB
:100F50000000C4F20200016841F0100101600320AA
:100F600000F08CF80F2000F005F800F027F80020C2
:100F700080BD000070B540F20006C2F2000640F2EB
:100F800008013278C2F200014FF47A730968B3FBAA
:100F9000F2F20446B1FBF2F1084600F085FB0F2C9B
:100FA0004FF0010508D838B94FF0FF302146002234
:100FB000002500F037F87460284670BD82B041F219
:100FC0001800C4F202000168022241F00101016030
:100FD000016801F0010101910199416841F08051DE
:100FE0004160406800F08050009000980420C4F2F6
:100FF0000100016862F31A61016002B070470000ED
:10100000002848BF704700F01F01012202FA01F1D9
:101010001C2202EAD0004EF20012CEF200028150F1
:101020007047000010B54EF60C5CCEF2000CDCF8F8
:101030000030C3F3022E8EF00704042C28BF0424D2
:10104000BEF103034FF0FF3E0EFA04F438BF002355
:10105000A14399400EFA03F39A43114300F00F02A3
:1010600000F160430901043A03F564436244002837
:1010700048BF02F10C03197010BD00004EF60C5170
:10108000CEF200010A684FF6FF031A4060F30A220D
:1010900042F0806040F0FD7008607047002804BF97
:1010A000012070472DE9F04381B042F20008C4F2FC
:1010B00002080446D8F800000D4600F007008142FF
:1010C0000CD9D8F8000020F007002843C8F8000029
:1010D000D8F8000000F00700A8426CD1206841F267
:1010E00004098107C4F2020917D5410705D5D9F8CB
:1010F000001041F4E061C9F80010010705D5D9F8E6
:10110000001041F46051C9F80010D9F80010A2682D
:1011100021F0F0011143C9F80010C00742D1D8F8FE
:10112000000000F0070085420CD2D8F8000020F043
:1011300007002843C8F80000D8F8000000F00700B6
:10114000A84238D12068410707D5D9F80010E268D5
:1011500021F4E0611143C9F80010000708D5D9F85F
:101160000000216920F4605040EAC100C9F8000085
:10117000D9F8002002F00C00082841F20020C0F24B
:101180007A004DD143F60623C2F38341C0F6000333
:10119000595CD20338D440F60010C0F23D004843F9
:1011A0003EE000BF606859F8041C022808D00128FE
:1011B00026D1890306D4012001B0BDE8F08300BF29
:1011C0008901F8D5D9F8001021F003010843C9F8C6
:1011D0000000FFF717FA064641F28837D9F80000F9
:1011E000616800F00C00B0EB810F98D0FFF70AFAAD
:1011F000801BB842F2D9032001B0BDE8F08300BFE4
:101200008907D8D5DEE700BFD9F8002043F60423CC
:10121000C2F34042C0F600039A5C4843B0FBF2F0D0
:10122000D9F8001043F6EC12C1F30311C0F6000226
:10123000515C40F2080220FA01F140F20400C2F2CF
:1012400000000068C2F200021160FFF793FE002068
:1012500001B0BDE8F083000040F2080041F2040153
:10126000C2F20000C4F202010068096843F6FC12F1
:10127000C1F30221C0F60002515CC8407047000073
:1012800040F2080041F20401C2F20000C4F202017F
:101290000068096843F6FC12C1F3C221C0F60002DF
:1012A000515CC84070470000002804BF012070470F
:1012B0002DE9F04182B00446007841F20006C007F3
:1012C000C4F202060CD0706800F00C00042840F054
:1012D00081803068800303D56068002800F0468173
:1012E000207880071BD5706810F00C0F09D070684B
:1012F00000F00C00082840F087807068C00300F1FF
:1013000083803068800703D52069012840F02E8152
:101310003068616920F0F80040EAC1003060207850
:10132000000713D4207840072CD4E569002D00F085
:101330001881706800F00C00082840F0A780012D8B
:1013400040F00481012002B0BDE8F081A0690028CE
:1013500000F084800020C4F242200121C0F88014F3
:10136000FFF750F9054600BF706A800700F1B280B0
:10137000FFF748F9401B0228F6D9032002B0BDE868
:10138000F08100BFF0695FEAC00808D4F06940F05E
:101390008050F061F06900F080500090009847F2B2
:1013A0000007C4F200073868C00549D4386840F423
:1013B00080703860FFF726F9054600BF3868C00521
:1013C0003ED4FFF71FF9401B6428F7D9032002B071
:1013D000BDE8F081706800F00C00082803D1706847
:1013E000C0033FF576AF61683068002900F00C81DA
:1013F000B1F5A02F00F00081B1F5803F40F01A81D7
:1014000040F480301CE100BF2069002840F2000059
:10141000C4F2422000F0888001210160FFF7F2F859
:10142000054600BF306880073FF572AFFFF7EAF866
:10143000401B0228F6D9032002B0BDE8F08100BFAE
:10144000E168306A002900F09D80052900F0928053
:10145000012940F0AF8040F00100B1E00020C4F26B
:1014600042200021C0F88014FFF7CCF8054600BFE9
:10147000706A80077FF556AFFFF7C4F8401B02285B
:10148000F6D9032002B0BDE8F08100BF0027C4F206
:10149000422700203866FFF7B5F8022D05460DD12A
:1014A0003068800140F1DE80FFF7ACF8401B022875
:1014B0004FF00300F4D902B0BDE8F081306880013C
:1014C0004FD5FFF79FF8401B02284FF00300F5D9D6
:1014D000F1E700BF40F20800C2F20000006844F6E5
:1014E000D351C1F26201A0FB0101480A019000BF83
:1014F00000BF0198411E002801913FF413AF00BFC7
:101500000198411E002801913FF40CAF00BF0198E3
:10151000411E002801913FF405AF00BF0198411E14
:1015200000280191E4D1FDE600210160FFF76AF88F
:10153000054600BF306880077FF5F1AEFFF762F81F
:10154000401B02284FF00300F4D9B4E77068216A09
:1015500000F480328A4209D1616A00F47010884236
:1015600004D1002002B0BDE8F08100BF012002B02C
:10157000BDE8F08140F004003062306A40F00100C4
:101580001EE000BF20F001003062306A20F004004D
:101590003062FFF737F8054641F28837306A800736
:1015A00020D5FFF72FF8401BB8424FF00300F5D9C4
:1015B00081E700BF20F001003062306A20F00400B3
:1015C0003062FFF71FF8054641F28837306A80071E
:1015D00008D4FFF717F8401BB842F7D9032002B030
:1015E000BDE8F081B8F1000F3FF59FAEF06920F043
:1015F0008050F06199E600BF40F480203060306890
:1016000040F480301CE000BF20F48030306030684F
:1016100020F480203060FEF7F5FF05463068800337
:101620007FF55EAEFEF7EEFF401B64284FF003002F
:10163000F4D940E720F480303060306820F4802016
:101640003060FEF7DFFF0546306880033FF548AEA7
:10165000FEF7D8FF401B6428F6D9032002B0BDE88E
:10166000F08100BF206AB0F5803F05D17168A268A3
:1016700021F40031114371607168626A21F47411C0
:1016800011430843706001203866FEF7BBFF044633
:10169000306880013FF565AFFEF7B4FF001B0228FC
:1016A0004FF00300F4D906E7411E0020B0EB116FA4
:1016B0001CBF012070474EF21002CEF200025160B2
:1016C0004EF62351CEF20001F0230B7007219060FB
:1016D0001160704790F83C20012A4FF0020236D08A
:1016E00010B580F83D200268D2F804E0D2F808C0B6
:1016F0000C682EF07003234340F2FF74C4F2000420
:10170000A24253600ADCB2F1804F13D040F2004392
:10171000C4F200039A420DD011E000BF42F600432C
:10172000C4F201039A4205D040F60003C4F200035C
:101730009A4204D149682CF0800319439160012139
:10174000002280F83D1080F83C20BDE81040104693
:1017500070470000002804BF0120704710B590F8C2
:101760003D1031B9002180F83C10044600F070F8BB
:101770002046022180F83D10016840F2FF740B689A
:10178000C4F2000442F6004CA142C4F2010C15DC84
:10179000B1F1804F1AD040F20042C4F200029142EF
:1017A00014D0A14218DCB1F1804F1DD040F20042AC
:1017B000C4F20002914217D01AE000BF614505D083
:1017C00040F60002C4F200029142EAD1826823F09E
:1017D00070031343A142E6DD614505D040F60002E7
:1017E000C4F20002914203D1026923F4407313430F
:1017F000846923F08002D0F804E0C3682243614585
:101800000A60CB62C1F828E002D14269CCF83020EE
:1018100001224A610B69DB0703D00B6923F0010346
:101820000B6180F8462080F83E2080F83F2080F849
:10183000402080F8412080F8422080F8432080F842
:10184000442080F8452080F83D20002010BD000095
:10185000006840F20041C4F20001884218BF70479E
:1018600081B041F21C00C4F20200016841F00201A3
:101870000160006800F002000090009801B070471D
:1018800090F83C20012A4FF002026CD080B580F81D
:101890003D20D0F800C04FF67772DCF8083023EA1C
:1018A0000202CCF808200B684F2B29DC1F2B45DDEA
:1018B000202B46D0302B44D0402B40F0AF80D1F8C5
:1018C00004E0C968DCF82030DCF8202022F00102B6
:1018D000CCF82020DCF8182022F0F00242EA0111B6
:1018E00023F00A0242EA0E02CCF81810CCF82020AD
:1018F000DCF8081041F0470121F0300128E000BF7A
:101900006F2B33DDB3F5005F74D0B3F5805F21D06A
:10191000702B40F08380D1E901E3C968DCF808202E
:1019200043EA0E0322F47F4243EA01211143CCF83B
:101930000810DCF8081041F0770109E00BB1102B1A
:101940006CD1DCF8081021F07001194341F0070157
:10195000CCF808100022012180F83D10002180F809
:101960003C10BDE880401046704700BF502B21D08E
:10197000602B53D1D1F804E0C968DCF82030DCF8E2
:10198000202022F01002CCF82020DCF8182022F4CD
:10199000704242EA013123F0A00242EA0E12CCF872
:1019A0001810CCF82020DCF8081041F0670121F075
:1019B0001001CDE7D1F804E0C968DCF82030DCF88C
:1019C000202022F00102CCF82020DCF8182022F0A0
:1019D000F00242EA011123F00A0242EA0E02CCF8B8
:1019E0001810CCF82020DCF8081041F0570121F045
:1019F0002001ADE7D1E901E3C968DCF8082043EA3A
:101A00000E0322F47F4243EA01211143CCF808106F
:101A1000DCF8081041F480419AE700BF01229AE700
:101A2000002804BF012070472DE9F04F81B090F8E5
:101A30003D2042B9002280F83C2004460D4600F0CB
:101A40009DF829462046022280F83D20026844F293
:101A50000705936842F6004CAB43936040F2FF7376
:101A60001468C4F200039A42C4F2010C14DCB2F10F
:101A7000804F19D040F20045C4F20005AA4213D0AD
:101A80009A4217DCB2F1804F1CD040F20043C4F2FE
:101A900000039A4216D01AE0624505D040F60005D0
:101AA000C4F20005AA42EBD1856824F070042C43EF
:101AB0009A42E7DD624505D040F60003C4F2000318
:101AC0009A4204D1036924F4407543EA050424F0E2
:101AD00080038469D0F804E0C5682343624513603D
:101AE000D562C2F828E002D14369CCF830304FF01B
:101AF000010EC2F814E01569ED0703D0156925F051
:101B00000105156195689469D2F820C0D1E90038C3
:101B1000D1E9027B43EA050A8D694FF6FF7924EA91
:101B2000090447EA05254FF6FC47BD43D1E907768E
:101B300044EA0B040B692C4344EA07242CF02207E7
:101B4000496944EA031347EA080743EA063347EAC8
:101B50000111C2F808A09361116280F846E080F894
:101B60003EE080F83FE080F842E080F843E080F813
:101B70003DE0002001B0BDE8F08F000080B586B0E8
:101B8000006840F60001C4F2000188424FF00001F5
:101B9000CDE90411CDE902111ED0B0F1804F3FD143
:101BA00041F21800C4F20200416841F001014160B5
:101BB000416801F0010101910199016841F00401BE
:101BC00001600068032100F004000190019840F6D4
:101BD0000000C4F201001CE041F21800C4F202004F
:101BE000416841F004014160416801F00401019144
:101BF0000199016841F0080101600068C02100F00E
:101C000008000190019840F60000C4F2010000F5C0
:101C1000806002910021CDE9031102A9FEF7E4FBE7
:101C200006B080BD90F83C30012B04BF0220704705
:101C30004FEAB202032A00F2F1802DE9F043DFE817
:101C400002F003A53B7500BF036842F600461D6A1B
:101C50001A6AC4F2010622F001021A621A465C688E
:101C600052F818CFB3428E68D1F800E025F0020593
:101C700045EA06050CD1CE68D1E9057824F4407414
:101C800025F00C0526F004063C43354344EA0804DD
:101C90002CF0730747EA0E075C609F614F68096983
:101CA0005F631D629F6947F008079F619F6927F086
:101CB00004079F61A6E000BF036842F600461D6A64
:101CC0001A6AC4F2010622F480721A621A46D3F824
:101CD00004C052F81CEFB3428E680C6825F40075FE
:101CE00045EA06250FD1CE68D1E90598360240F2C3
:101CF000FF4725F44065BE4335432CF4405748EA7E
:101D0000090647EA061C2EF073072743C3F804C0F0
:101D1000DF614F680969DF631D62DF6947F008070B
:101D2000DF61DF6927F00407DF616BE0036842F6DB
:101D30000047D3F820C01A6AC4F2010722F4805287
:101D40001A621A465C6852F81C5FD1F800E08E688F
:101D5000BB4204D14F6924F4804444EA87142CF434
:101D6000005747EA063725F4E64646EA0E265C6049
:101D7000DE614E6809691E641F62DF6947F400670F
:101D8000DF61DF6927F48067DF613AE0036842F6CC
:101D900000461D6A1A6AC4F2010622F010021A6295
:101DA0001A46D3F804C052F8184FB3428E68D1F8DF
:101DB00000E025F0200545EA06150FD1CE68D1E9EF
:101DC00005986FF0400725F0C00507EA0616354371
:101DD0002CF4406748EA090647EA860C24F4E644F6
:101DE00044EA0E27C3F804C09F614F6809699F63E6
:101DF0001D629F6947F400679F619F6927F48067B0
:101E00009F6109021368194311600021BDE8F04386
:101E1000002280F83C200846704700BF01210022C4
:101E200080F83C2008467047002804BF0120704716
:101E300010B590F83D1031B9002180F83C100446EF
:101E400000F070F82046022180F83D10016840F251
:101E5000FF740B68C4F2000442F6004CA142C4F2C5
:101E6000010C15DCB1F1804F1AD040F20042C4F2EF
:101E70000002914214D0A14218DCB1F1804F1DD074
:101E800040F20042C4F20002914217D01AE000BFB3
:101E9000614505D040F60002C4F200029142EAD149
:101EA000826823F070031343A142E6DD614505D04B
:101EB00040F60002C4F20002914203D1026923F409
:101EC00040731343846923F08002D0F804E0C368B0
:101ED000224361450A60CB62C1F828E002D1426921
:101EE000CCF8302001224A610B69DB0703D00B6973
:101EF00023F001030B6180F8462080F83E2080F833
:101F00003F2080F8402080F8412080F8422080F86F
:101F1000432080F8442080F8452080F83D200020B0
:101F200010BD000070470000C1B1042908D0082985
:101F300014BF41224022825C012A05D016E000BF76
:101F40003F22825C012A11D10222082910D00429E3
:101F500014BF80F8412080F83F200BE090F83E202D
:101F6000012A03D1022280F83E2003E001207047BD
:101F700080F84020006801F01F010122036A8A40B6
:101F800023EA02010162036A42F64441C4F20101FC
:101F90001A43A1F14403984202620FD040F2FF714C
:101FA000C4F20001884213DCB0F1804F1CD040F233
:101FB0000041C4F20001884216D01CE00A6842F4D5
:101FC00000420A6040F2FF71C4F200018842EBDD7A
:101FD00042F60041C4F20101884205D040F60001FA
:101FE000C4F20001884206D1816801F00701062988
:101FF00004BF00207047016841F00101016000202A
:1020000070470000B0B5044690F83C0001284FF03E
:10201000020008BFB0BD012584F83C5084F83D00A3
:10202000204601F019FB00284FF0010006D00021E6
:1020300084F83D5084F83C10B0BD00BF2068C168F2
:1020400021F04001C160C16821F48041C1600020DD
:10205000002184F83D5084F83C10B0BD704700006A
:1020600070470000B0B582B001680A68CC684B695F
:1020700002F02F05202D04F0200505D125B102B076
:10208000BDE8B04001F06CBB5FEA027C1EBF03F00C
:10209000010E04F4907313EB0E0341D1036BD506CC
:1020A00018D5012B16D114F0100313D00022019281
:1020B0000A6801924A680192019A496949064BD41B
:1020C000818DC28DC38D002B18BF914240F0F481E9
:1020D00002B0B0BD13062DD514F080032AD090F8BD
:1020E0004120212AF4D18268B2F5805F03D10269D0
:1020F000002A00F06782026A531C036212784A6069
:10210000C28C013A1304C284E2D1C86820F0800076
:10211000C860C86840F04000C86002B0B0BD00BFF1
:10212000D30718BF14F4807340F0D080530700F138
:10213000D380D8E05206CBD514F04002C8D0CA688C
:1021400022F04002CA60202180F8411002B0BDE8B0
:10215000B04000F0C5BB00BFC16B0A68526893B2C3
:10216000002BB5D0858DAB42B2D2C28589692029BA
:1021700000F0A180016851E8031F026821F480711A
:1021800042E80313DBB1016851E8031F026821F440
:10219000807142E8031393B1016851E8031F02689C
:1021A00021F4807142E803134BB1016851E8031F29
:1021B000026821F4807142E80313002BDAD1016830
:1021C00051E8051F026821F0010142E80513C3B37D
:1021D000016851E8051F026821F0010142E805137A
:1021E0007BB3016851E8051F026821F0010142E854
:1021F000051333B3016851E8051F026821F001019E
:1022000042E80513002BDAD11BE000BF016851E85A
:10221000051F026821F0400142E80513DBB10168A7
:1022200051E8051F026821F0400142E8051393B10F
:10223000016851E8051F026821F0400142E80513DA
:102240004BB1016851E8051F026821F0400142E8E6
:102250000513002BDAD1202180F842100021016300
:10226000016851E8031F026821F0100142E80313DE
:10227000DBB1016851E8031F026821F0100142E858
:10228000031393B1016851E8031F026821F01001A4
:1022900042E803134BB1016851E8031F026821F0C3
:1022A000100142E80313002BDAD1C16B0446084643
:1022B000FEF706F8204602214163818DC28D891AFE
:1022C00089B202B0BDE8B040FFF7C8BE436C43F02E
:1022D00001034364530706D5BEF1000F03D0436CDE
:1022E00043F002034364930706D5BEF1000F03D009
:1022F000436C43F004034364BCF1000F06D55EEA6F
:10230000050303D0436C43F008034364436C002B84
:102310003FF4DEAE920605D525B1044601F020FA61
:10232000216820464969426C01F0400102F0080230
:10233000891800F0B98000BF016851E8031F0268E6
:1023400021F4907142E80313BBB3016851E8031F05
:10235000026821F4907142E8031373B3016851E8F5
:10236000031F026821F4907142E803132BB3016844
:1023700051E8031F026821F4907142E80313002B17
:10238000DAD11AE0016851E8051F026821F0010165
:1023900042E80513DBB1016851E8051F026821F02E
:1023A000010142E8051393B1016851E8051F026875
:1023B00021F0010142E805134BB1016851E8051F06
:1023C000026821F0010142E80513002BDAD1016B0C
:1023D000012924D1016851E8031F026821F010018E
:1023E00042E80313DBB1016851E8031F026821F0E2
:1023F000100142E8031393B1016851E8031F02681A
:1024000021F0100142E803134BB1016851E8031FAA
:10241000026821F0100142E80313002BDAD12021D9
:1024200080F842100021016301684969490640F1C2
:10243000C380016851E8051F026821F0400142E8AD
:102440000513DBB1016851E8051F026821F0400166
:1024500042E8051393B1016851E8051F026821F0B5
:10246000400142E805134BB1016851E8051F0268BD
:1024700021F0400142E80513002BDAD1C16B00299D
:1024800000F09A8043F25572C0F6000204460846F6
:102490004A63FDF739FF00283FF41AAEE06B416B49
:1024A00002B0BDE8B04008470446FFF7D9FD002060
:1024B000606402B0B0BD00BF891A00BF026852E874
:1024C000032F036822F4907243E80325BDB302682A
:1024D00052E8032F036822F4907243E8032575B392
:1024E000026852E8032F036822F4907243E8032540
:1024F0002DB3026852E8032F036822F4907243E878
:102500000325002DDAD11AE0026852E8052F03688E
:1025100022F0010243E80525DDB1026852E8052FEB
:10252000036822F0010243E8052595B1026852E8EC
:10253000052F036822F0010243E805254DB102682A
:1025400052E8052F036822F0010243E80525002D1B
:10255000DAD1202280F8422000220263026852E889
:10256000032F036822F0100243E80325DDB102685F
:1025700052E8032F036822F0100243E8032595B1C7
:10258000026852E8032F036822F0100243E8032593
:102590004DB1026852E8032F036822F0100243E8AD
:1025A0000325002DDAD1022289B2426302B0BDE8D0
:1025B000B040FFF753BD00BF02B0BDE8B040FFF729
:1025C0004FBD00BF026A32F8023B6FF35F234B60DE
:1025D000026295E5002804BF0120704710B504464B
:1025E00090F8410028B9002084F84000204600F00F
:1025F00063F8242084F841002068D4E90212C368FB
:1026000023F40053C360036923F440531A43026167
:10261000D4E904231143C268194341F20C639A437D
:102620001143C1604169A26921F44071114343F62D
:102630000002C4F201029042416103D0FEF70CFE99
:1026400002E000BFFEF71CFED4E900231921484335
:102650009900B0FBF1F048F21F5CC5F2EB1CA0FB47
:102660000C314FF69C734909C0F6FF7301FB030060
:10267000322303EB0010A0FB0C03F02000EA531000
:1026800000EB0110C3F3431108449060106920214E
:1026900020F490401061506920F02A005061D06809
:1026A00040F40050D0600020606484F8411084F849
:1026B0004210606310BD000070B586B040F60004A3
:1026C000C4F20104006804F54051002688420596D2
:1026D000CDE90366029601D006B070BD41F2180044
:1026E000C4F20200016802AD41F48041016001685A
:1026F00001F4804101910199016841F004010160F8
:102700000068294600F00400019001984FF4007021
:10271000029002200390032005902046FDF764FEFE
:102720004FF48060CDE90206204629460496FDF765
:102730005BFE252000210022FEF774FC2520FEF719
:102740005FFC06B070BD0000704700002DE9F0434B
:1027500081B0044690F84100202809D100294FF0AB
:10276000010018BF002A07D101B0BDE8F08300BF07
:10277000022001B0BDE8F0830020606421201D46E6
:102780000E4684F841001746FDF73CFFA784E78416
:10279000A1688146B1F5805F02D1206900285DD033
:1027A00037460020E28C2168002A5DD06A1C24D0C4
:1027B000002D4AD0804600BF0868000608D4FDF707
:1027C00021FFA0EB0900A8427AD82168C868F3E786
:1027D00017B117F8010B04E038F8020B00276FF36C
:1027E0005F204860E08C0138E084E08C0028E3D171
:1027F0003AE000BF0A68120609D40A68120606D435
:102800000A6812065CBF0A685FEA0262F2D51FB16D
:1028100017F8012B05E000BF30F8022B00276FF3FB
:102820005F224A60E28C013AE284E28C002AE4D121
:102830001AE000BF30F8022B00276FF35F224A60D6
:10284000E28C013AE284E28C72B10A68120635D554
:10285000002FEFD017F8012BF1E700BF002730461B
:10286000E28C2168002AA1D1086840061ED42DB34D
:10287000681C14D1086840062AD40868400627D48A
:102880000868400624D4086840064FF00000F1D5DF
:102890000DE000BF2068C1680068400618D4FDF74D
:1028A000B1FEA0EB0900A842F4D909E000202021E4
:1028B00084F8411001B0BDE8F08300BFFDF7A2FE2F
:1028C0000320202184F8411001B0BDE8F08300BF4F
:1028D0000020202184F8411001B0BDE8F083000001
:1028E00070470000FEE700002DE9F04383B0044686
:1028F00000680F4601680A9D0B9E41F4807199465D
:102900009046016020464FF0011100222B460096B0
:1029100000F0ACF850B120680068C00544BF4FF427
:1029200000702064032003B0BDE8F083206807F046
:10293000FE0101610221C0F2010120462A46334610
:1029400000F07AF920B1012003B0BDE8F08300BFA8
:102950000020029020683246416902918069294630
:1029600002900298204600F01BFA58B1206C04280F
:10297000E9D12068016841F400710160012003B0D1
:10298000BDE8F0832068B9F1010F0AD04FEA1821A1
:10299000016120462946324600F002FA0028E5D1BE
:1029A00020685FFA88F10161002003B0BDE8F08380
:1029B00070B50368044653F8140F400711D40E464F
:1029C000481C29D086BB00BF1868400527D4FDF7F6
:1029D00019FE236853F8140F400737D518684007CD
:1029E000F2D5002070BD00BF18684007F9D4186800
:1029F000400514D418684007F3D4186840050ED475
:102A000018684007EDD41868400508D418684007D6
:102A10004FF0000048BF70BD18684005E4D56FF462
:102A200080601860042012E0154603E053F8140F8C
:102A30004007D6D418684005F1D4FDF7E3FD401BEC
:102A40002368B042F2D958694007EFD42020002112
:102A50002022216384F83D2084F83E10226C10432C
:102A60002064012084F83C1070BD00002DE9F04185
:102A7000054600681E46144601F47F0201338FB2FA
:102A800042D0DDF81880B2F5803F40F08780406981
:102A90003840C01BB0FA80F04009844240F0C88042
:102AA0004EB924E040693840C01BB0FA80F04009BC
:102AB000844240F0BD80FDF7A5FDA0EB0801286829
:102AC000B142EFD941693940C91BB1FA81F14909D5
:102AD0008C42E7D19BE000BF40693840C01BB0FA90
:102AE00080F0400984424FF0000040F0A280FDF7E2
:102AF00089FD286841693940C91BB1FA81F149094A
:102B00008C42E9D183E000BFB2F5803F24D100BF01
:102B100041693940C91BB1FA81F149098C4240F041
:102B2000878041693940C91BB1FA81F149098C425A
:102B300040F07E8041693940C91BB1FA81F14909F1
:102B40008C4275D141693940C91BB1FA81F14909FB
:102B50008C42DDD06CE000BF81693940C91BB1FAFD
:102B600081F149098C4263D181693940C91BB1FAAD
:102B700081F149098C425BD181693940C91BB1FAA5
:102B800081F149098C4253D181693940C91BB1FA9D
:102B900081F149098C42DFD04AE000BF80693840AA
:102BA000C01BB0FA80F04009844241D146B923E00D
:102BB00080693840C01BB0FA80F04009844237D1A8
:102BC000FDF720FDA0EB08012868B142F0D981692A
:102BD0003940C91BB1FA81F149098C42E8D116E0AC
:102BE00080693840C01BB0FA80F0400984424FF041
:102BF000000018BFBDE8F081FDF704FD2868816979
:102C00003940C91BB1FA81F149098C42E8D1002051
:102C10002021286385F83D1085F83E00296C41F09D
:102C20002001296485F83C000120BDE8F08100BF47
:102C30000020BDE8F0810000F0B581B004460068D6
:102C40001D4643698FB203EA0701B94202D1002051
:102C500001B0F0BD4169164601323CD0490512D49D
:102C60007EB300BFFDF7CEFC411B2068B14203D903
:102C700041693940B9422BD141693940B942E6D066
:102C800041694905EED5016841F4007101606FF4B6
:102C900080614161042000212022216384F83D20CD
:102CA00084F83E10226C1043206484F83C1001200C
:102CB00001B0F0BD41693940B942C8D04169490508
:102CC000E1D4FDF79FFC206841693940B942F1D059
:102CD0002020E0E741694905D5D441693940B9422E
:102CE000B5D041694905CED441693940B942AED029
:102CF00041694905C7D441693940B942A7D0416902
:102D00004905C0D441693940B942E3D19FE7000089
:102D100070B504460068154650F8143F5A063DD475
:102D20000E4629B926E000BF50F8141F490635D4D5
:102D30000168C90621D4FDF765FC411B2068B1423A
:102D4000F2D941694906EFD400202021206384F89C
:102D50003D1084F83E00206C40F0200018E000BFD9
:102D6000FDF750FC206850F8141F4906ECD50168A7
:102D7000490613D40168C906F2D56FF0100101604D
:102D800000202021206384F83D1084F83E00206C50
:102D90002064002084F83C00012070BD002070BD3C
:102DA00070B50368044653F8140F000611D40E469C
:102DB000481C29D086BB00BF1868400527D4FDF702
:102DC00021FC236853F8140F000637D51868000655
:102DD000F2D5002070BD00BF18680006F9D418684D
:102DE000400514D418680006F3D4186840050ED4C2
:102DF00018680006EDD41868400508D41868000665
:102E00004FF0000048BF70BD18684005E4D56FF46E
:102E100080601860042012E0154603E053F8140F98
:102E20000006D6D418684005F1D4FDF7EBFB401B33
:102E30002368B042F2D958690006EFD4202000215F
:102E40002022216384F83D2084F83E10226C104338
:102E50002064012084F83C1070BD00002DE9F04F83
:102E600085B04FF0000A41F21800CDE903AACDE980
:102E700001AAC4F20200016840F6004841F01001C6
:102E800001600168C4F2010801F01001009100998D
:102E9000016808F5806541F02001016001680022A9
:102EA00001F020010091009901684FF4005741F0B2
:102EB00004010160016801F00401009100990168BA
:102EC00041F00801016000684FF4005100F0080073
:102ED000009000982846FDF78FFBA8F580663046E5
:102EE000342100224FF03409FDF786FB40460121D2
:102EF00000220124FDF780FB0DF1040BCDE90174E4
:102F0000022728465946CDF80CA00497FDF76CFA25
:102F100030465946CDE90194CDE903A7FDF764FA9F
:102F200040465946CDE90144CDE903A7FDF75CFAD7
:102F300040465946CDE9017ACDF80CA0FDF754FA88
:102F400005B0BDE8F08F000080B540F2700045F29A
:102F50000041C2F20000C4F2000148F2A062002366
:102F60004FF4804CC0F2010280E80E00C0E9033C3F
:102F7000C0E90533C0E90733FDF74AFB002808BF65
:102F800080BDBDE88040FDF795B9000080B58CB0EC
:102F900040F2C4000021C2F200004FF08042C0E9BC
:102FA000002103224FF6FF73CDE903210122CDE971
:102FB0000011C0E9021301618161CDE90521CDE96C
:102FC0000711CDE909210B9103A9FEF729FD00287E
:102FD00018BFFDF76FF940F2C400C2F20000694665
:102FE000FEF778FB002818BFFDF764F90CB080BD30
:102FF000B0B598B040F20C1040F200450021C2F28A
:1030000000006323C4F200051291CDE91011CDE94F
:103010000D11CDE90B11CDE90911CDE90711CDE96C
:103020000511CDE90311CDE901114722C0E90213D1
:1030300001618021C0E900528161FEF78BFB00280D
:1030400018BFFDF737F94FF480500F9040F20C1085
:10305000C2F200000FA9FEF713FC002818BFFDF70D
:1030600029F940F20C10C2F20000FEF7DDFE002844
:1030700018BFFDF71FF920200B9040F20C10002420
:10308000C2F200000AA90A94FEF7BCFF002818BF8C
:10309000FDF710F940F20C10C2F2000008A9CDE9CA
:1030A0000844FEF717FB002818BFFDF703F960205E
:1030B00001900020CDE90200059040F20C10C2F210
:1030C000000001A90022FEF7ADFD002818BFFDF7A2
:1030D000F1F840F20C14C2F2000401A920460422C7
:1030E000FEF7A0FD002818BFFDF7E4F821680020D6
:1030F000A942CDE916001590149001D018B0B0BDCA
:1031000041F21800C4F20200016841F004010160BC
:10311000006814A900F0040013901398C0201490C4
:1031200002201590179005F58230FDF75DF918B073
:10313000B0BD000080B58CB040F2541040F60002E3
:103140000021C2F20000C4F200024FF6FF73C0E992
:1031500000210122CDE90011C0E902130161816162
:10316000CDE90321CDE90521CDE90711CDE90921FB
:103170000B9103A9FEF754FC002818BFFDF79AF83D
:1031800040F25410C2F200006946FEF7A3FA00288C
:1031900018BFFDF78FF80CB080BD000080B540F27D
:1031A0009C1043F60001C2F20000C4F201010023AA
:1031B0004FF00C0C4FF4E13280E80E00C0E903330D
:1031C000C0E905C3C361FFF705FA002808BF80BD49
:1031D000BDE88040FDF76EB8FEE70000B0B540F6F0
:1031E0000004C4F20104204620210122FDF704FA64
:1031F0002046102100220025FDF7FEF9204604217B
:103200000022FDF7F9F904F580642046012100222F
:10321000FDF7F2F9204602210022FDF7EDF940F218
:103220000C14C2F2000420460021FEF77DFE204669
:103230000421FEF779FE206845638563B0BD000078
:103240002DE9F04140F20C18C2F20008D8F80C70D9
:1032500040F6000504460128C4F2010506DB2846B5
:1032600010210122FDF7C8F9002608E0264628466D
:1032700010210022002C18BF0126FDF7BDF92846B9
:1032800004213246FDF7B8F9642CA8BF642414F178
:10329000640FD8BF6FF06304781C48F21F51002CF4
:1032A00048BF64426043C5F2EB11A0FB0101D8F8AE
:1032B0000000C1F34F114163BDE8F0812DE9F041F9
:1032C00040F20C18C2F20008D8F80C7040F6004525
:1032D00004460128C4F2010506DB2846012101222B
:1032E000FDF78AF9002608E026462846012100223B
:1032F000002C18BF0126FDF77FF92846022132462F
:10330000FDF77AF9642CA8BF642414F1640FD8BFC8
:103310006FF06304781C48F21F51002C48BF6442D0
:103320006043C5F2EB11A0FB0101D8F80000C1F326
:103330004F118163BDE8F08110B50446FFF780FFAF
:103340002046BDE81040FFF7B9BF0000FEE70000CF
:103350007047000040F2E411C2F20001086000F082
:1033600001B800002DE9F04385B040F2E415C2F247
:103370000005AE2128688DF81310642401260DF194
:103380001307782100220123CDE9007602944FF043
:103390000008FDF7DDFC28687821002201238DF864
:1033A0001380CDE900760294FDF7D2FC1021286845
:1033B0008DF81310782100220123CDE900760294C4
:1033C000FDF7C6FC28684FF0400978210022012350
:1033D0008DF81390CDE900760294FDF7B9FC202119
:1033E00028688DF81310782100220123CDE900769A
:1033F0000294FDF7ADFC28687821002201238DF8A6
:103400001380CDE900760294FDF7A2FC81212868A3
:103410008DF81310782100220123CDE90076029463
:10342000FDF796FCFF2128688DF813107821002203
:103430000123CDE900760294FDF78AFCA1212868DA
:103440008DF81310782100220123CDE90076029433
:10345000FDF77EFCC82128688DF813107821002222
:103460000123CDE900760294FDF772FCA6212868BD
:103470008DF81310782100220123CDE90076029403
:10348000FDF766FCA82128688DF81310782100222A
:103490000123CDE900760294FDF75AFC3F2128680C
:1034A0008DF81310782100220123CDE900760294D3
:1034B000FDF74EFCD32128688DF8131078210022E7
:1034C0000123CDE900760294FDF742FC28687821BB
:1034D000002201238DF81380CDE900760294FDF7D8
:1034E00037FCD52128688DF813107821002201239C
:1034F000CDE900760294FDF72BFC802128688DF839
:103500001310782100220123CDE900760294FDF703
:103510001FFCD92128688DF813107821002201237F
:10352000CDE900760294FDF713FC222128688DF87E
:103530001310782100220123CDE900760294FDF7D3
:1035400007FCDA2128688DF8131078210022012366
:10355000CDE900760294FDF7FBFB122128688DF877
:103560001310782100220123CDE900760294FDF7A3
:10357000EFFBDB2128688DF813107821002201234E
:10358000CDE900760294FDF7E3FB2868782100225C
:1035900001238DF81390CDE900760294FDF7D8FB56
:1035A0008D2128688DF81310782100220123CDE9A0
:1035B00000760294FDF7CCFB142128688DF81310D7
:1035C000782100220123CDE900760294FDF7C0FBAB
:1035D000A42128688DF81310782100220123CDE959
:1035E00000760294FDF7B4FB2E2128688DF81310A5
:1035F000782100220123CDE900760294FDF7A8FB93
:10360000232128688DF81310782100220123CDE9A9
:1036100000760294FDF79CFB2868782100220123A4
:103620008DF81380CDE900760294FDF791FBAF2170
:1036300028688DF81310782100220123CDE9007647
:103640000294FDF785FB05B0BDE8F08370470000EC
:10365000FDF76EBC7047000080B5D0F800E0DEF8E2
:103660000800D1E900C320F0770023F007021043DF
:103670004FEA331340EA0C00072BCEF808000CD8B1
:103680000020DFE803F005050505071D370D00BF25
:1036900080BD00BFBCF1050F46D1012080BD00BF39
:1036A000D1E902020969DEF80830104323F47F43B0
:1036B00040EA01201843CEF80800002080BD00BF7A
:1036C00088680969DEF82020DEF8203022F00A023E
:1036D00023F00103CEF82030DEF81830104323F039
:1036E000F00343EA0111CEF81810CEF820000020B4
:1036F00080BD00BF88680969DEF82020DEF8203030
:1037000022F0A00223F01003CEF82030DEF81830AB
:1037100042EA001023F4704343EA0131CEF8181056
:10372000CEF82000002080BDDEF82000DEF820204A
:1037300022F00102CEF82020DEF81820096922F0DC
:10374000F00242EA0111CEF81810CEF82000002055
:1037500080BD0000406A0021C185C184FEF780BCA5
:1037600081B090F84210222921D183680246B3F536
:10377000805F09D152F8281F52F8183C002B63D003
:1037800003685B680AE000BF52F8281F13B9036999
:10379000002BF5D003685B6803F07F030B701168A2
:1037A00001311160C18D01390A04C18502D001B017
:1037B000704700BF0168CA6822F02002CA60CA6868
:1037C00022F48072CA604A6922F001024A61202113
:1037D00080F8421000214163026B012A3CD1016351
:1037E000016851E8031F026821F0100142E8031349
:1037F000DBB1016851E8031F026821F0100142E8C3
:10380000031393B1016851E8031F026821F010010E
:1038100042E803134BB1016851E8031F026821F02D
:10382000100142E80313002BDAD101680A68D206BE
:1038300006D5002200920A6800924968009100991A
:10384000818D01B0FEF70ABC026852686FF35F22F7
:1038500021F8022B8162A5E701B0FEF775BF0000D9
:1038600040F29C10C2F20000FEF7FCBBFEE7000035
:1038700090B0FDF76BFB00240120CDE90B44CDE9AE
:10388000094406900A904FF4E0104FF4803102256D
:103890000F9006A8CDE90714CDE90D51FDF704FD01
:1038A00020B1EFF3108072B6FEE700BF0F20CDE924
:1038B00001054FF48060CDE9040401A802210394BE
:1038C000FDF7ECFB20B1EFF3108072B6FEE700BF0E
:1038D000FFF7C4FAFFF762FCFFF736FBFFF788FB40
:1038E000FFF754FBFFF726FC40F27004C2F200041D
:1038F0002046FFF72FFD20A000F068F8A5200790D4
:1039000048F60050CAF6147006904FF0FF3506AA2C
:103910002046782105230095FDF72CF901AA2046C1
:10392000782101230095FCF725FF9DF804004FF452
:103930000051C0F3801241F20000C4F20100FCF714
:103940005BFE4FF4FA70FCF73BFDFFF747FC3220BB
:10395000FFF7F2FC49F69A14C4F2CD14204600F0A9
:1039600013F8204600F010F800F01EF84FF4FA703B
:10397000FCF726FDF2E700BF537461727420727584
:103980006E6E696E670A000080B582B0019040F2E9
:103990009C10C2F2000001A904224FF0FF33FEF791
:1039A000D5FE02B080BD000080B582B04FF0FF4070
:1039B000019040F29C10C2F2000001A904224FF0D5
:1039C000FF33FEF7C3FE02B080BD000010B5044611
:1039D000FCF710FC82B240F29C10C2F200002146BB
:1039E0004FF0FF33BDE81040FEF7B0BE000000000E
:1039F000000000000102030406070809000000009F
:103A000001020304010202030405060708090A0B68
:103A10000C0D0E0F10100000383A000800000020B6
:103A20001000000050010008483A00081000002073
:103A3000E007000070010008010000001000000015
:083A400000127A0000000000F2
:04000005080000ED02
:00000001FF
